:100000000C94A7000C94C4000C94C4000C94C4007D
:100010000C94C4000C94C4000C94C4000C94C40050
:100020000C94C4000C94C4000C94C4000C94C40040
:100030000C94C4000C94C4000C94C4000C94C40030
:100040000C94C4000C94C4000C94C4000C94C40020
:100050000C94C40000407A10F35A00A0724E1809A4
:100060000010A5D4E80000E87648170000E40B541F
:10007000020000CA9A3B000000E1F50500008096EE
:100080009800000040420F000000A0860100000020
:10009000102700000000E8030000000064000000DA
:1000A00000000A00000000000100000000002C76A3
:1000B000D888DC674F0823DFC1DFAE59E1B1B796BE
:1000C000E5E3E453C63AE651997696E8E6C284261B
:1000D000EB898C9B62ED407C6FFCEFBC9C9F40F2F7
:1000E000BAA56FA5F490055A2AF75C936B6CF96773
:1000F0006DC11BFCE0E40D47FEF520E6B500D0ED38
:10010000902E0300943577050080841E080000209F
:100110004E0A000000C80C333333330F986E12833D
:100120001141EF8D2114893BE65516CFFEE6DB1811
:10013000D1844B381BF77C1D901DA4BBE4242032D6
:1001400084725E228100C9F124ECA1E53D271124CF
:100150001FBECFE5D8E0DEBFCDBF10E0A0E6B0E027
:10016000EAE4FAE002C005900D92AA37B107D9F788
:1001700010E0AAE7B0E001C01D92AC37B107E1F78B
:100180000E9424010C9423050C9400008BBB85B3C2
:100190008C7F85BBAA9A82E08A95F1F7AA9880E7BE
:1001A00097E10197F1F708958BBBA99885B3856016
:1001B00085BB82E08A95F1F7AA9880ED97E00197D8
:1001C000F1F7089584B3876084BB8FEF8ABB80E426
:1001D0009CE90197F1F788E30E94C6008CE00E9439
:1001E000C60086E00E94C60081E00E94C60080E84A
:1001F0000E94C6000895CF93DF93EC0102C00E94D5
:10020000D40089918823D9F7DF91CF910895CF93B6
:10021000DF93EA01813021F46F70862F806805C07A
:10022000823029F46F70862F806C0E94C600CE0148
:100230000E94FB00DF91CF91089581E00E94C600EB
:1002400080E80E94C60008959F92AF92BF92CF921D
:10025000DF92EF92FF920F931F93DF93CF93CDB76F
:10026000DEB72A970FB6F894DEBF0FBECDBF81E090
:1002700081BB8FEF82BB0E94E20081E060E040E63C
:1002800050E00E940701789484E089BF1FBC3AE1E6
:10029000932E21E4A22E90E2C92E84E0D82EBB2416
:1002A000B3947E010894E11CF11C909A892D8A95E3
:1002B000F1F790981DBC1CBCAEBCC8BED8BE08B639
:1002C00005FEFDCF1DBC1CBCBEBCC8BED8BE109276
:1002D0007B0010927A0008B605FEFDCF66B577B5B3
:1002E00080E090E00E94FA0129E23CE349EE53E409
:1002F0000E94900142E022E087010E948602C7012D
:100300006BE670E00E94A70282E060E042E750E006
:100310000E94070182E067E0A7010E940701C5CFA4
:100320000CD0BAC0B2D040F0A9D030F021F45F3F79
:1003300019F09BC05111E4C09EC0BFD098F399231F
:10034000C9F35523B1F3951B550BBB27AA27621799
:100350007307840738F09F5F5F4F220F331F441FDE
:10036000AA1FA9F333D00E2E3AF0E0E830D0915016
:100370005040E695001CCAF729D0FE2F27D0660F03
:10038000771F881FBB1F261737074807AB07B0E842
:1003900009F0BB0B802DBF01FF2793585F4F2AF058
:1003A0009E3F510568F061C0ABC05F3FECF3983EE3
:1003B000DCF3869577956795B795F7959F5FC9F7B5
:1003C000880F911D9695879597F90895E1E0660F3E
:1003D000771F881FBB1F621773078407BA0720F0B7
:1003E000621B730B840BBA0BEE1F88F7E095089520
:1003F000E89409C097FB3EF49095809570956195BF
:100400007F4F8F4F9F4F9923A9F0F92F96E9BB2774
:100410009395F695879577956795B795F111F8CFF0
:10042000FAF4BB0F11F460FF1BC06F5F7F4F8F4F5B
:100430009F4F16C0882311F096E911C0772321F051
:100440009EE8872F762F05C0662371F096E8862FE9
:1004500070E060E02AF09A95660F771F881FDAF740
:10046000880F9695879597F9089597F99F6780E883
:1004700070E060E008959FEF80EC089500240A94F6
:100480001616170618060906089500240A9412166F
:100490001306140605060895092E0394000C11F4A2
:1004A000882352F0BB0F40F4BF2B11F460FF04C04F
:1004B0006F5F7F4F8F4F9F4F089557FD9058440FA8
:1004C000551F59F05F3F71F04795880F97FB991FB3
:1004D00061F09F3F79F08795089512161306140670
:1004E000551FF2CF4695F1DF08C0161617061806FD
:1004F000991FF1CF86957105610508940895E894D8
:10050000BB2766277727CB0197F90895EF92FF92D3
:100510000F931F93F22FF02E47FD02C0E4E001C0BD
:10052000E4E1242F332727FD309537FF03C03095B2
:1005300021953F4F4F2D512F0F2FEE2E0E94B202CB
:100540008F2D912F1F910F91FF90EF900895FB0138
:10055000DC010D900020E9F7119701900D92002029
:10056000E1F70895A9E0B0E0E8EBF2E00C94F004C4
:100570006A01122FA02EBE2C2BE3201718F42CE3B7
:10058000922E02C0902E9394AE014F5F5F4F27E0F2
:10059000092D0E941404BC018981E82EFF24C701A3
:1005A00089709070019711F4ADE209C0B1FE02C0EC
:1005B000ABE205C0B0FC02C0A0E001C0A0E2E3FED7
:1005C0003BC0AA2311F423E001C024E0211710F05E
:1005D00020E002C0121B212FEB2CB4FE02C0322FF0
:1005E0000AC0F601322F80E202C0819331503323DA
:1005F000E1F7C20ED11CAA2319F0F601A1936F01F5
:10060000F6013196E2FE05C09EE4D6019C9381E49A
:1006100004C09EE6D6019C9381E611968C9391834B
:100620003296DF01832F90E202C09D938150882390
:10063000E1F7E30FF11D40C0E2FE42C0AA2311F42E
:1006400023E001C024E0211710F020E002C0121BBB
:10065000212FEB2CB4FE02C0922F0AC0F601922F7C
:1006600080E202C0819391509923E1F7C20ED11C20
:10067000AA2319F0F601A1936F01F6013196E2FE6B
:1006800008C089E4D6018C938EE411968C9386E49D
:1006900007C089E6D6018C938EE611968C9386E688
:1006A00081833296DF01892F20E202C02D93815091
:1006B0008823E1F7E90FF11D10822EEF3FEFAFC065
:1006C000161617061CF041E050E003C0AB014F5F67
:1006D0005F4FAA2019F480E090E003C08A2D90E0DB
:1006E000019620E030E0AA2311F021E030E0240F51
:1006F000351F280F391F812F90E02817390714F074
:1007000020E002C0121B212F4B2D50E0CA01807146
:100710009070B4FC0DC0B3FC0BC0F601322F40E268
:1007200002C0419331503323E1F7C20ED11C01C006
:10073000322FAA2319F0F601A1936F01892B11F032
:10074000132F0AC0F601132F80E302C081931150CA
:100750001123E1F7C30ED11C092D060FBA8090E1D9
:10076000892E912C8E209F20E4FE04C0F1E3BF1659
:1007700009F40150101614F001E003C0093008F02C
:1007800008E09B0177FF02C020E030E0CB0101963A
:10079000821B930BFE013196E80FF91F8EE2F82EB3
:1007A0003B01601A71088A2D90E044275527481BA9
:1007B000590B8FEF2F3F380719F4D601FD926D01C9
:1007C000621773072CF06216730614F4808101C05F
:1007D00080E32150304031962417350724F0D601AC
:1007E0008D936D01E6CF2617370749F4B5E3BB15A6
:1007F00028F0BB1621F48114910409F481E3F60179
:100800008193D601812F90E202C09C938150119672
:100810008823D9F7E10FF11D108220E030E0C901F3
:100820002996EEE00C940C05283008F027E03327D9
:10083000DA01990F311D87FD916000966105710500
:1008400039F432602E5F3D9330E32A95E1F7089545
:100850009F3F30F080387105610509F03C5F3C5FD7
:100860003D93913008F08068911DDF93CF931F93E3
:100870000F93FF92EF92192F987F9695E92F9695F7
:100880009695E90FFF27E255FF4F99273327EE246E
:10089000FF24A701E70105900894079428F4360F78
:1008A000E71EF81E491F511D660F771F881F991FED
:1008B0000694A1F70590079428F4E70EF81E491F47
:1008C000561FC11D770F881F991F661F0694A1F739
:1008D0000590079428F4F80E491F561FC71FD11D15
:1008E000880F991F661F771F0694A1F7059007943C
:1008F00020F4490F561FC71FD81F990F661F771F77
:10090000881F0694A9F784911095177041F0D69529
:10091000C79557954795F794E7941A95C1F7E4E57D
:10092000F0E0689415901591359165919591059039
:100930007FE27395E118F10A430B560BC90BD009FE
:10094000C0F7E10CF11E431F561FC91FD01D7EF4D6
:10095000703311F48A95E6CFE894015030F0080F17
:100960000AF40027021708F4202F2395022F7A3368
:1009700028F079E37D932A95E9F710C07D932A95B5
:1009800089F6069497956795379517951794E1180A
:10099000F10A430B560BC90BD00998F023957E91B1
:1009A00073957A3308F070E37C932013B8F77E9147
:1009B00070617D9330F0839571E37D9370E32A95A8
:1009C000E1F71124EF90FF900F911F91CF91DF91EC
:1009D000992787FD909508952F923F924F925F92AD
:1009E0006F927F928F929F92AF92BF92CF92DF923F
:1009F000EF92FF920F931F93CF93DF93CDB7DEB7A4
:100A0000CA1BDB0B0FB6F894DEBF0FBECDBF099437
:100A10002A88398848885F846E847D848C849B848E
:100A2000AA84B984C884DF80EE80FD800C811B819C
:100A3000AA81B981CE0FD11D0FB6F894DEBF0FBECB
:0A0A4000CDBFED010895F894FFCF3B
:100A4A00556C747261736F6E69630020636D202048
:0A0A5A00200044697374203D200061
:00000001FF
